{
  "_format": "hh-sol-artifact-1",
  "contractName": "FlashLoanReceiver",
  "sourceName": "contracts/FlashLoanReceiver.sol",
  "abi": [
    {
      "inputs": [
        {
          "internalType": "address",
          "name": "_poolAddress",
          "type": "address"
        }
      ],
      "stateMutability": "nonpayable",
      "type": "constructor"
    },
    {
      "anonymous": false,
      "inputs": [
        {
          "indexed": false,
          "internalType": "address",
          "name": "token",
          "type": "address"
        },
        {
          "indexed": false,
          "internalType": "uint256",
          "name": "amount",
          "type": "uint256"
        }
      ],
      "name": "LoanReceived",
      "type": "event"
    },
    {
      "inputs": [
        {
          "internalType": "uint256",
          "name": "_amount",
          "type": "uint256"
        }
      ],
      "name": "executeFlashLoan",
      "outputs": [],
      "stateMutability": "nonpayable",
      "type": "function"
    },
    {
      "inputs": [
        {
          "internalType": "address",
          "name": "_tokenAddress",
          "type": "address"
        },
        {
          "internalType": "uint256",
          "name": "_amount",
          "type": "uint256"
        }
      ],
      "name": "receiveTokens",
      "outputs": [],
      "stateMutability": "nonpayable",
      "type": "function"
    }
  ],
  "bytecode": "0x608060405234801561001057600080fd5b506040516107bf3803806107bf8339818101604052810190610032919061011c565b806000806101000a81548173ffffffffffffffffffffffffffffffffffffffff021916908373ffffffffffffffffffffffffffffffffffffffff16021790555033600160006101000a81548173ffffffffffffffffffffffffffffffffffffffff021916908373ffffffffffffffffffffffffffffffffffffffff16021790555050610149565b600080fd5b600073ffffffffffffffffffffffffffffffffffffffff82169050919050565b60006100e9826100be565b9050919050565b6100f9816100de565b811461010457600080fd5b50565b600081519050610116816100f0565b92915050565b600060208284031215610132576101316100b9565b5b600061014084828501610107565b91505092915050565b610667806101586000396000f3fe608060405234801561001057600080fd5b50600436106100365760003560e01c8063357291301461003b578063fb056f6814610057575b600080fd5b610055600480360381019061005091906103b0565b610073565b005b610071600480360381019061006c91906103f0565b6101f9565b005b60008054906101000a900473ffffffffffffffffffffffffffffffffffffffff1673ffffffffffffffffffffffffffffffffffffffff163373ffffffffffffffffffffffffffffffffffffffff1614610101576040517f08c379a00000000000000000000000000000000000000000000000000000000081526004016100f89061047a565b60405180910390fd5b808273ffffffffffffffffffffffffffffffffffffffff166370a08231306040518263ffffffff1660e01b815260040161013b91906104a9565b602060405180830381865afa158015610158573d6000803e3d6000fd5b505050506040513d601f19601f8201168201806040525081019061017c91906104d9565b146101bc576040517f08c379a00000000000000000000000000000000000000000000000000000000081526004016101b390610552565b60405180910390fd5b7f1eb85bd961c2383a0fab35aca88c37d338e2c256ca614015fb37027205bfe94982826040516101ed929190610581565b60405180910390a15050565b600160009054906101000a900473ffffffffffffffffffffffffffffffffffffffff1673ffffffffffffffffffffffffffffffffffffffff163373ffffffffffffffffffffffffffffffffffffffff1614610289576040517f08c379a0000000000000000000000000000000000000000000000000000000008152600401610280906105f6565b60405180910390fd5b60008054906101000a900473ffffffffffffffffffffffffffffffffffffffff1673ffffffffffffffffffffffffffffffffffffffff16639ab603b9826040518263ffffffff1660e01b81526004016102e29190610616565b600060405180830381600087803b1580156102fc57600080fd5b505af1158015610310573d6000803e3d6000fd5b5050505050565b600080fd5b600073ffffffffffffffffffffffffffffffffffffffff82169050919050565b60006103478261031c565b9050919050565b6103578161033c565b811461036257600080fd5b50565b6000813590506103748161034e565b92915050565b6000819050919050565b61038d8161037a565b811461039857600080fd5b50565b6000813590506103aa81610384565b92915050565b600080604083850312156103c7576103c6610317565b5b60006103d585828601610365565b92505060206103e68582860161039b565b9150509250929050565b60006020828403121561040657610405610317565b5b60006104148482850161039b565b91505092915050565b600082825260208201905092915050565b7f53656e646572206d7573742062652074686520706f6f6c000000000000000000600082015250565b600061046460178361041d565b915061046f8261042e565b602082019050919050565b6000602082019050818103600083015261049381610457565b9050919050565b6104a38161033c565b82525050565b60006020820190506104be600083018461049a565b92915050565b6000815190506104d381610384565b92915050565b6000602082840312156104ef576104ee610317565b5b60006104fd848285016104c4565b91505092915050565b7f204661696c656420746f20676574206c6f616e00000000000000000000000000600082015250565b600061053c60138361041d565b915061054782610506565b602082019050919050565b6000602082019050818103600083015261056b8161052f565b9050919050565b61057b8161037a565b82525050565b6000604082019050610596600083018561049a565b6105a36020830184610572565b9392505050565b7f4f6e6c79206f776e65722063616e2063616c6c2074686973206d6574686f6400600082015250565b60006105e0601f8361041d565b91506105eb826105aa565b602082019050919050565b6000602082019050818103600083015261060f816105d3565b9050919050565b600060208201905061062b6000830184610572565b9291505056fea26469706673582212203b780af0f3a8c27d14596e4806adb7c22327145fe4bc5655eef171ef731f617b64736f6c63430008110033",
  "linkReferences": {},
  "deployedLinkReferences": {}
}