{
  "_format": "hh-sol-artifact-1",
  "contractName": "FlashLoan",
  "sourceName": "contracts/FlashLoan.sol",
  "abi": [
    {
      "inputs": [
        {
          "internalType": "address",
          "name": "_tokenAddress",
          "type": "address"
        }
      ],
      "stateMutability": "nonpayable",
      "type": "constructor"
    },
    {
      "inputs": [
        {
          "internalType": "uint256",
          "name": "_amount",
          "type": "uint256"
        }
      ],
      "name": "depositTokens",
      "outputs": [],
      "stateMutability": "nonpayable",
      "type": "function"
    },
    {
      "inputs": [
        {
          "internalType": "uint256",
          "name": "_borrowAmount",
          "type": "uint256"
        }
      ],
      "name": "flashLoan",
      "outputs": [],
      "stateMutability": "nonpayable",
      "type": "function"
    },
    {
      "inputs": [],
      "name": "poolBalance",
      "outputs": [
        {
          "internalType": "uint256",
          "name": "",
          "type": "uint256"
        }
      ],
      "stateMutability": "view",
      "type": "function"
    },
    {
      "inputs": [],
      "name": "token",
      "outputs": [
        {
          "internalType": "contract Token",
          "name": "",
          "type": "address"
        }
      ],
      "stateMutability": "view",
      "type": "function"
    }
  ],
  "bytecode": "0x608060405234801561001057600080fd5b506040516109d03803806109d0833981810160405281019061003291906100db565b806000806101000a81548173ffffffffffffffffffffffffffffffffffffffff021916908373ffffffffffffffffffffffffffffffffffffffff16021790555050610108565b600080fd5b600073ffffffffffffffffffffffffffffffffffffffff82169050919050565b60006100a88261007d565b9050919050565b6100b88161009d565b81146100c357600080fd5b50565b6000815190506100d5816100af565b92915050565b6000602082840312156100f1576100f0610078565b5b60006100ff848285016100c6565b91505092915050565b6108b9806101176000396000f3fe608060405234801561001057600080fd5b506004361061004c5760003560e01c806396365d44146100515780639ab603b91461006f578063dd49756e1461008b578063fc0c546a146100a7575b600080fd5b6100596100c5565b6040516100669190610475565b60405180910390f35b610089600480360381019061008491906104c1565b6100cb565b005b6100a560048036038101906100a091906104c1565b610320565b005b6100af610422565b6040516100bc919061056d565b60405180910390f35b60015481565b6000811161010e576040517f08c379a0000000000000000000000000000000000000000000000000000000008152600401610105906105e5565b60405180910390fd5b60008060009054906101000a900473ffffffffffffffffffffffffffffffffffffffff1673ffffffffffffffffffffffffffffffffffffffff166370a08231306040518263ffffffff1660e01b815260040161016a9190610626565b602060405180830381865afa158015610187573d6000803e3d6000fd5b505050506040513d601f19601f820116820180604052508101906101ab9190610656565b9050818110156101f0576040517f08c379a00000000000000000000000000000000000000000000000000000000081526004016101e7906106cf565b60405180910390fd5b60008054906101000a900473ffffffffffffffffffffffffffffffffffffffff1673ffffffffffffffffffffffffffffffffffffffff1663a9059cbb33846040518363ffffffff1660e01b815260040161024b9291906106ef565b6020604051808303816000875af115801561026a573d6000803e3d6000fd5b505050506040513d601f19601f8201168201806040525081019061028e9190610750565b503373ffffffffffffffffffffffffffffffffffffffff16633572913060008054906101000a900473ffffffffffffffffffffffffffffffffffffffff16846040518363ffffffff1660e01b81526004016102ea9291906106ef565b600060405180830381600087803b15801561030457600080fd5b505af1158015610318573d6000803e3d6000fd5b505050505050565b60008111610363576040517f08c379a000000000000000000000000000000000000000000000000000000000815260040161035a906107c9565b60405180910390fd5b60008054906101000a900473ffffffffffffffffffffffffffffffffffffffff1673ffffffffffffffffffffffffffffffffffffffff166323b872dd3330846040518463ffffffff1660e01b81526004016103c0939291906107e9565b6020604051808303816000875af11580156103df573d6000803e3d6000fd5b505050506040513d601f19601f820116820180604052508101906104039190610750565b506104198160015461044690919063ffffffff16565b60018190555050565b60008054906101000a900473ffffffffffffffffffffffffffffffffffffffff1681565b60008183610454919061084f565b905092915050565b6000819050919050565b61046f8161045c565b82525050565b600060208201905061048a6000830184610466565b92915050565b600080fd5b61049e8161045c565b81146104a957600080fd5b50565b6000813590506104bb81610495565b92915050565b6000602082840312156104d7576104d6610490565b5b60006104e5848285016104ac565b91505092915050565b600073ffffffffffffffffffffffffffffffffffffffff82169050919050565b6000819050919050565b600061053361052e610529846104ee565b61050e565b6104ee565b9050919050565b600061054582610518565b9050919050565b60006105578261053a565b9050919050565b6105678161054c565b82525050565b6000602082019050610582600083018461055e565b92915050565b600082825260208201905092915050565b7f4d75737420626f72726f77206174206c65617374203120746f6b656e00000000600082015250565b60006105cf601c83610588565b91506105da82610599565b602082019050919050565b600060208201905081810360008301526105fe816105c2565b9050919050565b6000610610826104ee565b9050919050565b61062081610605565b82525050565b600060208201905061063b6000830184610617565b92915050565b60008151905061065081610495565b92915050565b60006020828403121561066c5761066b610490565b5b600061067a84828501610641565b91505092915050565b7f4e6f7420656e6f75676820746f6b656e7320696e20706f6f6c00000000000000600082015250565b60006106b9601983610588565b91506106c482610683565b602082019050919050565b600060208201905081810360008301526106e8816106ac565b9050919050565b60006040820190506107046000830185610617565b6107116020830184610466565b9392505050565b60008115159050919050565b61072d81610718565b811461073857600080fd5b50565b60008151905061074a81610724565b92915050565b60006020828403121561076657610765610490565b5b60006107748482850161073b565b91505092915050565b7f4d757374206465706f736974206174206c65617374206f6e20746f6b656e0000600082015250565b60006107b3601e83610588565b91506107be8261077d565b602082019050919050565b600060208201905081810360008301526107e2816107a6565b9050919050565b60006060820190506107fe6000830186610617565b61080b6020830185610617565b6108186040830184610466565b949350505050565b7f4e487b7100000000000000000000000000000000000000000000000000000000600052601160045260246000fd5b600061085a8261045c565b91506108658361045c565b925082820190508082111561087d5761087c610820565b5b9291505056fea2646970667358221220b8271d3ddaea78af74b77c6675ba2be37aada60be37c3d6e3b8b2b159c7e8e3664736f6c63430008110033",
  "linkReferences": {},
  "deployedLinkReferences": {}
}